{
  "_format": "hh-sol-artifact-1",
  "contractName": "DegenToken",
  "sourceName": "contracts/DegenToken.sol",
  "abi": [
    {
      "inputs": [],
      "stateMutability": "nonpayable",
      "type": "constructor"
    },
    {
      "anonymous": false,
      "inputs": [
        {
          "indexed": true,
          "internalType": "address",
          "name": "owner",
          "type": "address"
        },
        {
          "indexed": true,
          "internalType": "address",
          "name": "spender",
          "type": "address"
        },
        {
          "indexed": false,
          "internalType": "uint256",
          "name": "value",
          "type": "uint256"
        }
      ],
      "name": "Approval",
      "type": "event"
    },
    {
      "anonymous": false,
      "inputs": [
        {
          "indexed": true,
          "internalType": "address",
          "name": "previousOwner",
          "type": "address"
        },
        {
          "indexed": true,
          "internalType": "address",
          "name": "newOwner",
          "type": "address"
        }
      ],
      "name": "OwnershipTransferred",
      "type": "event"
    },
    {
      "anonymous": false,
      "inputs": [
        {
          "indexed": true,
          "internalType": "address",
          "name": "from",
          "type": "address"
        },
        {
          "indexed": true,
          "internalType": "address",
          "name": "to",
          "type": "address"
        },
        {
          "indexed": false,
          "internalType": "uint256",
          "name": "value",
          "type": "uint256"
        }
      ],
      "name": "Transfer",
      "type": "event"
    },
    {
      "inputs": [
        {
          "internalType": "uint256",
          "name": "item",
          "type": "uint256"
        }
      ],
      "name": "RedeemProducts",
      "outputs": [],
      "stateMutability": "nonpayable",
      "type": "function"
    },
    {
      "inputs": [],
      "name": "ShopMenu",
      "outputs": [
        {
          "internalType": "string",
          "name": "",
          "type": "string"
        }
      ],
      "stateMutability": "pure",
      "type": "function"
    },
    {
      "inputs": [
        {
          "internalType": "address",
          "name": "owner",
          "type": "address"
        },
        {
          "internalType": "address",
          "name": "spender",
          "type": "address"
        }
      ],
      "name": "allowance",
      "outputs": [
        {
          "internalType": "uint256",
          "name": "",
          "type": "uint256"
        }
      ],
      "stateMutability": "view",
      "type": "function"
    },
    {
      "inputs": [
        {
          "internalType": "address",
          "name": "spender",
          "type": "address"
        },
        {
          "internalType": "uint256",
          "name": "amount",
          "type": "uint256"
        }
      ],
      "name": "approve",
      "outputs": [
        {
          "internalType": "bool",
          "name": "",
          "type": "bool"
        }
      ],
      "stateMutability": "nonpayable",
      "type": "function"
    },
    {
      "inputs": [
        {
          "internalType": "address",
          "name": "account",
          "type": "address"
        }
      ],
      "name": "balanceOf",
      "outputs": [
        {
          "internalType": "uint256",
          "name": "",
          "type": "uint256"
        }
      ],
      "stateMutability": "view",
      "type": "function"
    },
    {
      "inputs": [
        {
          "internalType": "uint256",
          "name": "amount",
          "type": "uint256"
        }
      ],
      "name": "burn",
      "outputs": [],
      "stateMutability": "nonpayable",
      "type": "function"
    },
    {
      "inputs": [],
      "name": "checkbalance",
      "outputs": [
        {
          "internalType": "uint256",
          "name": "",
          "type": "uint256"
        }
      ],
      "stateMutability": "view",
      "type": "function"
    },
    {
      "inputs": [],
      "name": "decimals",
      "outputs": [
        {
          "internalType": "uint8",
          "name": "",
          "type": "uint8"
        }
      ],
      "stateMutability": "view",
      "type": "function"
    },
    {
      "inputs": [
        {
          "internalType": "address",
          "name": "spender",
          "type": "address"
        },
        {
          "internalType": "uint256",
          "name": "subtractedValue",
          "type": "uint256"
        }
      ],
      "name": "decreaseAllowance",
      "outputs": [
        {
          "internalType": "bool",
          "name": "",
          "type": "bool"
        }
      ],
      "stateMutability": "nonpayable",
      "type": "function"
    },
    {
      "inputs": [
        {
          "internalType": "address",
          "name": "spender",
          "type": "address"
        },
        {
          "internalType": "uint256",
          "name": "addedValue",
          "type": "uint256"
        }
      ],
      "name": "increaseAllowance",
      "outputs": [
        {
          "internalType": "bool",
          "name": "",
          "type": "bool"
        }
      ],
      "stateMutability": "nonpayable",
      "type": "function"
    },
    {
      "inputs": [
        {
          "internalType": "address",
          "name": "to",
          "type": "address"
        },
        {
          "internalType": "uint256",
          "name": "amount",
          "type": "uint256"
        }
      ],
      "name": "mint",
      "outputs": [],
      "stateMutability": "nonpayable",
      "type": "function"
    },
    {
      "inputs": [],
      "name": "name",
      "outputs": [
        {
          "internalType": "string",
          "name": "",
          "type": "string"
        }
      ],
      "stateMutability": "view",
      "type": "function"
    },
    {
      "inputs": [],
      "name": "owner",
      "outputs": [
        {
          "internalType": "address",
          "name": "",
          "type": "address"
        }
      ],
      "stateMutability": "view",
      "type": "function"
    },
    {
      "inputs": [
        {
          "internalType": "uint256",
          "name": "",
          "type": "uint256"
        }
      ],
      "name": "product",
      "outputs": [
        {
          "internalType": "uint256",
          "name": "",
          "type": "uint256"
        }
      ],
      "stateMutability": "view",
      "type": "function"
    },
    {
      "inputs": [],
      "name": "renounceOwnership",
      "outputs": [],
      "stateMutability": "nonpayable",
      "type": "function"
    },
    {
      "inputs": [],
      "name": "symbol",
      "outputs": [
        {
          "internalType": "string",
          "name": "",
          "type": "string"
        }
      ],
      "stateMutability": "view",
      "type": "function"
    },
    {
      "inputs": [],
      "name": "totalSupply",
      "outputs": [
        {
          "internalType": "uint256",
          "name": "",
          "type": "uint256"
        }
      ],
      "stateMutability": "view",
      "type": "function"
    },
    {
      "inputs": [
        {
          "internalType": "address",
          "name": "to",
          "type": "address"
        },
        {
          "internalType": "uint256",
          "name": "amount",
          "type": "uint256"
        }
      ],
      "name": "transfer",
      "outputs": [
        {
          "internalType": "bool",
          "name": "",
          "type": "bool"
        }
      ],
      "stateMutability": "nonpayable",
      "type": "function"
    },
    {
      "inputs": [
        {
          "internalType": "address",
          "name": "to",
          "type": "address"
        },
        {
          "internalType": "uint256",
          "name": "amount",
          "type": "uint256"
        }
      ],
      "name": "transferAmount",
      "outputs": [],
      "stateMutability": "nonpayable",
      "type": "function"
    },
    {
      "inputs": [
        {
          "internalType": "address",
          "name": "from",
          "type": "address"
        },
        {
          "internalType": "address",
          "name": "to",
          "type": "address"
        },
        {
          "internalType": "uint256",
          "name": "amount",
          "type": "uint256"
        }
      ],
      "name": "transferFrom",
      "outputs": [
        {
          "internalType": "bool",
          "name": "",
          "type": "bool"
        }
      ],
      "stateMutability": "nonpayable",
      "type": "function"
    },
    {
      "inputs": [
        {
          "internalType": "address",
          "name": "newOwner",
          "type": "address"
        }
      ],
      "name": "transferOwnership",
      "outputs": [],
      "stateMutability": "nonpayable",
      "type": "function"
    }
  ],
  "bytecode": "0x60806040523480156200001157600080fd5b506040518060400160405280600581526020017f446567656e0000000000000000000000000000000000000000000000000000008152506040518060400160405280600381526020017f44474e000000000000000000000000000000000000000000000000000000000081525081600390816200008f919062000494565b508060049081620000a1919062000494565b505050620000c4620000b86200014c60201b60201c565b6200015460201b60201c565b60326006600060018152602001908152602001600020819055506032600660006002815260200190815260200160002081905550600a600660006003815260200190815260200160002081905550602860066000600481526020019081526020016000208190555060146006600060058152602001908152602001600020819055506200057b565b600033905090565b6000600560009054906101000a900473ffffffffffffffffffffffffffffffffffffffff16905081600560006101000a81548173ffffffffffffffffffffffffffffffffffffffff021916908373ffffffffffffffffffffffffffffffffffffffff1602179055508173ffffffffffffffffffffffffffffffffffffffff168173ffffffffffffffffffffffffffffffffffffffff167f8be0079c531659141344cd1fd0a4f28419497f9722a3daafe3b4186f6b6457e060405160405180910390a35050565b600081519050919050565b7f4e487b7100000000000000000000000000000000000000000000000000000000600052604160045260246000fd5b7f4e487b7100000000000000000000000000000000000000000000000000000000600052602260045260246000fd5b600060028204905060018216806200029c57607f821691505b602082108103620002b257620002b162000254565b5b50919050565b60008190508160005260206000209050919050565b60006020601f8301049050919050565b600082821b905092915050565b6000600883026200031c7fffffffffffffffffffffffffffffffffffffffffffffffffffffffffffffffff82620002dd565b620003288683620002dd565b95508019841693508086168417925050509392505050565b6000819050919050565b6000819050919050565b6000620003756200036f620003698462000340565b6200034a565b62000340565b9050919050565b6000819050919050565b620003918362000354565b620003a9620003a0826200037c565b848454620002ea565b825550505050565b600090565b620003c0620003b1565b620003cd81848462000386565b505050565b5b81811015620003f557620003e9600082620003b6565b600181019050620003d3565b5050565b601f82111562000444576200040e81620002b8565b6200041984620002cd565b8101602085101562000429578190505b620004416200043885620002cd565b830182620003d2565b50505b505050565b600082821c905092915050565b6000620004696000198460080262000449565b1980831691505092915050565b600062000484838362000456565b9150826002028217905092915050565b6200049f826200021a565b67ffffffffffffffff811115620004bb57620004ba62000225565b5b620004c7825462000283565b620004d4828285620003f9565b600060209050601f8311600181146200050c5760008415620004f7578287015190505b62000503858262000476565b86555062000573565b601f1984166200051c86620002b8565b60005b8281101562000546578489015182556001820191506020850194506020810190506200051f565b8683101562000566578489015162000562601f89168262000456565b8355505b6001600288020188555050505b505050505050565b61209f806200058b6000396000f3fe608060405234801561001057600080fd5b50600436106101375760003560e01c8063780bd3f1116100b8578063a9059cbb1161007c578063a9059cbb14610350578063d7081e0314610380578063dd62ed3e1461039c578063e250367a146103cc578063eaa9600b146103ea578063f2fde38b1461040857610137565b8063780bd3f1146102985780638da5cb5b146102c857806395d89b41146102e6578063a457c2d714610304578063a4f108191461033457610137565b806339509351116100ff57806339509351146101f657806340c10f191461022657806342966c681461024257806370a082311461025e578063715018a61461028e57610137565b806306fdde031461013c578063095ea7b31461015a57806318160ddd1461018a57806323b872dd146101a8578063313ce567146101d8575b600080fd5b610144610424565b604051610151919061145c565b60405180910390f35b610174600480360381019061016f9190611517565b6104b6565b6040516101819190611572565b60405180910390f35b6101926104d9565b60405161019f919061159c565b60405180910390f35b6101c260048036038101906101bd91906115b7565b6104e3565b6040516101cf9190611572565b60405180910390f35b6101e0610512565b6040516101ed9190611626565b60405180910390f35b610210600480360381019061020b9190611517565b61051b565b60405161021d9190611572565b60405180910390f35b610240600480360381019061023b9190611517565b610552565b005b61025c60048036038101906102579190611641565b610568565b005b6102786004803603810190610273919061166e565b6105cb565b604051610285919061159c565b60405180910390f35b610296610613565b005b6102b260048036038101906102ad9190611641565b610627565b6040516102bf919061159c565b60405180910390f35b6102d061063f565b6040516102dd91906116aa565b60405180910390f35b6102ee610669565b6040516102fb919061145c565b60405180910390f35b61031e60048036038101906103199190611517565b6106fb565b60405161032b9190611572565b60405180910390f35b61034e60048036038101906103499190611641565b610772565b005b61036a60048036038101906103659190611517565b61084e565b6040516103779190611572565b60405180910390f35b61039a60048036038101906103959190611517565b610871565b005b6103b660048036038101906103b191906116c5565b6108d7565b6040516103c3919061159c565b60405180910390f35b6103d461095e565b6040516103e1919061145c565b60405180910390f35b6103f2610984565b6040516103ff919061159c565b60405180910390f35b610422600480360381019061041d919061166e565b610a05565b005b60606003805461043390611734565b80601f016020809104026020016040519081016040528092919081815260200182805461045f90611734565b80156104ac5780601f10610481576101008083540402835291602001916104ac565b820191906000526020600020905b81548152906001019060200180831161048f57829003601f168201915b5050505050905090565b6000806104c1610a88565b90506104ce818585610a90565b600191505092915050565b6000600254905090565b6000806104ee610a88565b90506104fb858285610c59565b610506858585610ce5565b60019150509392505050565b60006012905090565b600080610526610a88565b905061054781858561053885896108d7565b6105429190611794565b610a90565b600191505092915050565b61055a610f5b565b6105648282610fd9565b5050565b80610572336105cb565b10156105b3576040517f08c379a00000000000000000000000000000000000000000000000000000000081526004016105aa9061183a565b60405180910390fd5b6105bd33826104b6565b506105c8338261112f565b50565b60008060008373ffffffffffffffffffffffffffffffffffffffff1673ffffffffffffffffffffffffffffffffffffffff168152602001908152602001600020549050919050565b61061b610f5b565b61062560006112fc565b565b60066020528060005260406000206000915090505481565b6000600560009054906101000a900473ffffffffffffffffffffffffffffffffffffffff16905090565b60606004805461067890611734565b80601f01602080910402602001604051908101604052809291908181526020018280546106a490611734565b80156106f15780601f106106c6576101008083540402835291602001916106f1565b820191906000526020600020905b8154815290600101906020018083116106d457829003601f168201915b5050505050905090565b600080610706610a88565b9050600061071482866108d7565b905083811015610759576040517f08c379a0000000000000000000000000000000000000000000000000000000008152600401610750906118cc565b60405180910390fd5b6107668286868403610a90565b60019250505092915050565b600081118015610783575060048111155b156108105760066000828152602001908152602001600020546107a5336105cb565b10156107e6576040517f08c379a00000000000000000000000000000000000000000000000000000000081526004016107dd90611938565b60405180910390fd5b61080a6107f161063f565b600660008481526020019081526020016000205461084e565b5061084b565b6040517f08c379a0000000000000000000000000000000000000000000000000000000008152600401610842906119a4565b60405180910390fd5b50565b600080610859610a88565b9050610866818585610ce5565b600191505092915050565b8061087b336105cb565b10156108bc576040517f08c379a00000000000000000000000000000000000000000000000000000000081526004016108b39061183a565b60405180910390fd5b6108c633826104b6565b506108d23383836104e3565b505050565b6000600160008473ffffffffffffffffffffffffffffffffffffffff1673ffffffffffffffffffffffffffffffffffffffff16815260200190815260200160002060008373ffffffffffffffffffffffffffffffffffffffff1673ffffffffffffffffffffffffffffffffffffffff16815260200190815260200160002054905092915050565b606060006040518060c00160405280608f8152602001611fdb608f913990508091505090565b60003073ffffffffffffffffffffffffffffffffffffffff166370a08231336040518263ffffffff1660e01b81526004016109bf91906116aa565b602060405180830381865afa1580156109dc573d6000803e3d6000fd5b505050506040513d601f19601f82011682018060405250810190610a0091906119d9565b905090565b610a0d610f5b565b600073ffffffffffffffffffffffffffffffffffffffff168173ffffffffffffffffffffffffffffffffffffffff1603610a7c576040517f08c379a0000000000000000000000000000000000000000000000000000000008152600401610a7390611a78565b60405180910390fd5b610a85816112fc565b50565b600033905090565b600073ffffffffffffffffffffffffffffffffffffffff168373ffffffffffffffffffffffffffffffffffffffff1603610aff576040517f08c379a0000000000000000000000000000000000000000000000000000000008152600401610af690611b0a565b60405180910390fd5b600073ffffffffffffffffffffffffffffffffffffffff168273ffffffffffffffffffffffffffffffffffffffff1603610b6e576040517f08c379a0000000000000000000000000000000000000000000000000000000008152600401610b6590611b9c565b60405180910390fd5b80600160008573ffffffffffffffffffffffffffffffffffffffff1673ffffffffffffffffffffffffffffffffffffffff16815260200190815260200160002060008473ffffffffffffffffffffffffffffffffffffffff1673ffffffffffffffffffffffffffffffffffffffff168152602001908152602001600020819055508173ffffffffffffffffffffffffffffffffffffffff168373ffffffffffffffffffffffffffffffffffffffff167f8c5be1e5ebec7d5bd14f71427d1e84f3dd0314c0f7b2291e5b200ac8c7c3b92583604051610c4c919061159c565b60405180910390a3505050565b6000610c6584846108d7565b90507fffffffffffffffffffffffffffffffffffffffffffffffffffffffffffffffff8114610cdf5781811015610cd1576040517f08c379a0000000000000000000000000000000000000000000000000000000008152600401610cc890611c08565b60405180910390fd5b610cde8484848403610a90565b5b50505050565b600073ffffffffffffffffffffffffffffffffffffffff168373ffffffffffffffffffffffffffffffffffffffff1603610d54576040517f08c379a0000000000000000000000000000000000000000000000000000000008152600401610d4b90611c9a565b60405180910390fd5b600073ffffffffffffffffffffffffffffffffffffffff168273ffffffffffffffffffffffffffffffffffffffff1603610dc3576040517f08c379a0000000000000000000000000000000000000000000000000000000008152600401610dba90611d2c565b60405180910390fd5b610dce8383836113c2565b60008060008573ffffffffffffffffffffffffffffffffffffffff1673ffffffffffffffffffffffffffffffffffffffff16815260200190815260200160002054905081811015610e54576040517f08c379a0000000000000000000000000000000000000000000000000000000008152600401610e4b90611dbe565b60405180910390fd5b8181036000808673ffffffffffffffffffffffffffffffffffffffff1673ffffffffffffffffffffffffffffffffffffffff16815260200190815260200160002081905550816000808573ffffffffffffffffffffffffffffffffffffffff1673ffffffffffffffffffffffffffffffffffffffff168152602001908152602001600020600082825401925050819055508273ffffffffffffffffffffffffffffffffffffffff168473ffffffffffffffffffffffffffffffffffffffff167fddf252ad1be2c89b69c2b068fc378daa952ba7f163c4a11628f55a4df523b3ef84604051610f42919061159c565b60405180910390a3610f558484846113c7565b50505050565b610f63610a88565b73ffffffffffffffffffffffffffffffffffffffff16610f8161063f565b73ffffffffffffffffffffffffffffffffffffffff1614610fd7576040517f08c379a0000000000000000000000000000000000000000000000000000000008152600401610fce90611e2a565b60405180910390fd5b565b600073ffffffffffffffffffffffffffffffffffffffff168273ffffffffffffffffffffffffffffffffffffffff1603611048576040517f08c379a000000000000000000000000000000000000000000000000000000000815260040161103f90611e96565b60405180910390fd5b611054600083836113c2565b80600260008282546110669190611794565b92505081905550806000808473ffffffffffffffffffffffffffffffffffffffff1673ffffffffffffffffffffffffffffffffffffffff168152602001908152602001600020600082825401925050819055508173ffffffffffffffffffffffffffffffffffffffff16600073ffffffffffffffffffffffffffffffffffffffff167fddf252ad1be2c89b69c2b068fc378daa952ba7f163c4a11628f55a4df523b3ef83604051611117919061159c565b60405180910390a361112b600083836113c7565b5050565b600073ffffffffffffffffffffffffffffffffffffffff168273ffffffffffffffffffffffffffffffffffffffff160361119e576040517f08c379a000000000000000000000000000000000000000000000000000000000815260040161119590611f28565b60405180910390fd5b6111aa826000836113c2565b60008060008473ffffffffffffffffffffffffffffffffffffffff1673ffffffffffffffffffffffffffffffffffffffff16815260200190815260200160002054905081811015611230576040517f08c379a000000000000000000000000000000000000000000000000000000000815260040161122790611fba565b60405180910390fd5b8181036000808573ffffffffffffffffffffffffffffffffffffffff1673ffffffffffffffffffffffffffffffffffffffff1681526020019081526020016000208190555081600260008282540392505081905550600073ffffffffffffffffffffffffffffffffffffffff168373ffffffffffffffffffffffffffffffffffffffff167fddf252ad1be2c89b69c2b068fc378daa952ba7f163c4a11628f55a4df523b3ef846040516112e3919061159c565b60405180910390a36112f7836000846113c7565b505050565b6000600560009054906101000a900473ffffffffffffffffffffffffffffffffffffffff16905081600560006101000a81548173ffffffffffffffffffffffffffffffffffffffff021916908373ffffffffffffffffffffffffffffffffffffffff1602179055508173ffffffffffffffffffffffffffffffffffffffff168173ffffffffffffffffffffffffffffffffffffffff167f8be0079c531659141344cd1fd0a4f28419497f9722a3daafe3b4186f6b6457e060405160405180910390a35050565b505050565b505050565b600081519050919050565b600082825260208201905092915050565b60005b838110156114065780820151818401526020810190506113eb565b60008484015250505050565b6000601f19601f8301169050919050565b600061142e826113cc565b61143881856113d7565b93506114488185602086016113e8565b61145181611412565b840191505092915050565b600060208201905081810360008301526114768184611423565b905092915050565b600080fd5b600073ffffffffffffffffffffffffffffffffffffffff82169050919050565b60006114ae82611483565b9050919050565b6114be816114a3565b81146114c957600080fd5b50565b6000813590506114db816114b5565b92915050565b6000819050919050565b6114f4816114e1565b81146114ff57600080fd5b50565b600081359050611511816114eb565b92915050565b6000806040838503121561152e5761152d61147e565b5b600061153c858286016114cc565b925050602061154d85828601611502565b9150509250929050565b60008115159050919050565b61156c81611557565b82525050565b60006020820190506115876000830184611563565b92915050565b611596816114e1565b82525050565b60006020820190506115b1600083018461158d565b92915050565b6000806000606084860312156115d0576115cf61147e565b5b60006115de868287016114cc565b93505060206115ef868287016114cc565b925050604061160086828701611502565b9150509250925092565b600060ff82169050919050565b6116208161160a565b82525050565b600060208201905061163b6000830184611617565b92915050565b6000602082840312156116575761165661147e565b5b600061166584828501611502565b91505092915050565b6000602082840312156116845761168361147e565b5b6000611692848285016114cc565b91505092915050565b6116a4816114a3565b82525050565b60006020820190506116bf600083018461169b565b92915050565b600080604083850312156116dc576116db61147e565b5b60006116ea858286016114cc565b92505060206116fb858286016114cc565b9150509250929050565b7f4e487b7100000000000000000000000000000000000000000000000000000000600052602260045260246000fd5b6000600282049050600182168061174c57607f821691505b60208210810361175f5761175e611705565b5b50919050565b7f4e487b7100000000000000000000000000000000000000000000000000000000600052601160045260246000fd5b600061179f826114e1565b91506117aa836114e1565b92508282019050808211156117c2576117c1611765565b5b92915050565b7f496e73756666696369616e742042616c616e63652c20416d6f756e742069732060008201527f67726561746572207468616e2062616c616e6365000000000000000000000000602082015250565b60006118246034836113d7565b915061182f826117c8565b604082019050919050565b6000602082019050818103600083015261185381611817565b9050919050565b7f45524332303a2064656372656173656420616c6c6f77616e63652062656c6f7760008201527f207a65726f000000000000000000000000000000000000000000000000000000602082015250565b60006118b66025836113d7565b91506118c18261185a565b604082019050919050565b600060208201905081810360008301526118e5816118a9565b9050919050565b7f496e73756666696369616e742042616c616e6365000000000000000000000000600082015250565b60006119226014836113d7565b915061192d826118ec565b602082019050919050565b6000602082019050818103600083015261195181611915565b9050919050565b7f696e76616c6964206974656d206e756d62657200000000000000000000000000600082015250565b600061198e6013836113d7565b915061199982611958565b602082019050919050565b600060208201905081810360008301526119bd81611981565b9050919050565b6000815190506119d3816114eb565b92915050565b6000602082840312156119ef576119ee61147e565b5b60006119fd848285016119c4565b91505092915050565b7f4f776e61626c653a206e6577206f776e657220697320746865207a65726f206160008201527f6464726573730000000000000000000000000000000000000000000000000000602082015250565b6000611a626026836113d7565b9150611a6d82611a06565b604082019050919050565b60006020820190508181036000830152611a9181611a55565b9050919050565b7f45524332303a20617070726f76652066726f6d20746865207a65726f2061646460008201527f7265737300000000000000000000000000000000000000000000000000000000602082015250565b6000611af46024836113d7565b9150611aff82611a98565b604082019050919050565b60006020820190508181036000830152611b2381611ae7565b9050919050565b7f45524332303a20617070726f766520746f20746865207a65726f20616464726560008201527f7373000000000000000000000000000000000000000000000000000000000000602082015250565b6000611b866022836113d7565b9150611b9182611b2a565b604082019050919050565b60006020820190508181036000830152611bb581611b79565b9050919050565b7f45524332303a20696e73756666696369656e7420616c6c6f77616e6365000000600082015250565b6000611bf2601d836113d7565b9150611bfd82611bbc565b602082019050919050565b60006020820190508181036000830152611c2181611be5565b9050919050565b7f45524332303a207472616e736665722066726f6d20746865207a65726f20616460008201527f6472657373000000000000000000000000000000000000000000000000000000602082015250565b6000611c846025836113d7565b9150611c8f82611c28565b604082019050919050565b60006020820190508181036000830152611cb381611c77565b9050919050565b7f45524332303a207472616e7366657220746f20746865207a65726f206164647260008201527f6573730000000000000000000000000000000000000000000000000000000000602082015250565b6000611d166023836113d7565b9150611d2182611cba565b604082019050919050565b60006020820190508181036000830152611d4581611d09565b9050919050565b7f45524332303a207472616e7366657220616d6f756e742065786365656473206260008201527f616c616e63650000000000000000000000000000000000000000000000000000602082015250565b6000611da86026836113d7565b9150611db382611d4c565b604082019050919050565b60006020820190508181036000830152611dd781611d9b565b9050919050565b7f4f776e61626c653a2063616c6c6572206973206e6f7420746865206f776e6572600082015250565b6000611e146020836113d7565b9150611e1f82611dde565b602082019050919050565b60006020820190508181036000830152611e4381611e07565b9050919050565b7f45524332303a206d696e7420746f20746865207a65726f206164647265737300600082015250565b6000611e80601f836113d7565b9150611e8b82611e4a565b602082019050919050565b60006020820190508181036000830152611eaf81611e73565b9050919050565b7f45524332303a206275726e2066726f6d20746865207a65726f2061646472657360008201527f7300000000000000000000000000000000000000000000000000000000000000602082015250565b6000611f126021836113d7565b9150611f1d82611eb6565b604082019050919050565b60006020820190508181036000830152611f4181611f05565b9050919050565b7f45524332303a206275726e20616d6f756e7420657863656564732062616c616e60008201527f6365000000000000000000000000000000000000000000000000000000000000602082015250565b6000611fa46022836113d7565b9150611faf82611f48565b604082019050919050565b60006020820190508181036000830152611fd381611f97565b905091905056fe446567656e2073686f702050726f64756374733a20312e2044474e20542d53686972742835302044474e29200a3120322e2044474e2050616e74732835302044474e29200a3220332e2044474e204e465420283130302044474e29200a3320342e2044474e2047756e73202834302044474e29200a3420352e2044474e204261636b5061636b202832302044474e29a2646970667358221220615e7321c8126c14e700400ffc7b8a6ab0a192dd37e16322942902f799d006d064736f6c63430008120033",
  "linkReferences": {},
  "deployedLinkReferences": {}
}